{
  "_format": "hh-sol-artifact-1",
  "contractName": "CarbonCreditToken",
  "sourceName": "contracts/GreenToken.sol",
  "abi": [
    {
      "inputs": [],
      "stateMutability": "nonpayable",
      "type": "constructor"
    },
    {
      "inputs": [
        {
          "internalType": "address",
          "name": "sender",
          "type": "address"
        },
        {
          "internalType": "uint256",
          "name": "balance",
          "type": "uint256"
        },
        {
          "internalType": "uint256",
          "name": "needed",
          "type": "uint256"
        },
        {
          "internalType": "uint256",
          "name": "tokenId",
          "type": "uint256"
        }
      ],
      "name": "ERC1155InsufficientBalance",
      "type": "error"
    },
    {
      "inputs": [
        {
          "internalType": "address",
          "name": "approver",
          "type": "address"
        }
      ],
      "name": "ERC1155InvalidApprover",
      "type": "error"
    },
    {
      "inputs": [
        {
          "internalType": "uint256",
          "name": "idsLength",
          "type": "uint256"
        },
        {
          "internalType": "uint256",
          "name": "valuesLength",
          "type": "uint256"
        }
      ],
      "name": "ERC1155InvalidArrayLength",
      "type": "error"
    },
    {
      "inputs": [
        {
          "internalType": "address",
          "name": "operator",
          "type": "address"
        }
      ],
      "name": "ERC1155InvalidOperator",
      "type": "error"
    },
    {
      "inputs": [
        {
          "internalType": "address",
          "name": "receiver",
          "type": "address"
        }
      ],
      "name": "ERC1155InvalidReceiver",
      "type": "error"
    },
    {
      "inputs": [
        {
          "internalType": "address",
          "name": "sender",
          "type": "address"
        }
      ],
      "name": "ERC1155InvalidSender",
      "type": "error"
    },
    {
      "inputs": [
        {
          "internalType": "address",
          "name": "operator",
          "type": "address"
        },
        {
          "internalType": "address",
          "name": "owner",
          "type": "address"
        }
      ],
      "name": "ERC1155MissingApprovalForAll",
      "type": "error"
    },
    {
      "inputs": [
        {
          "internalType": "address",
          "name": "owner",
          "type": "address"
        }
      ],
      "name": "OwnableInvalidOwner",
      "type": "error"
    },
    {
      "inputs": [
        {
          "internalType": "address",
          "name": "account",
          "type": "address"
        }
      ],
      "name": "OwnableUnauthorizedAccount",
      "type": "error"
    },
    {
      "anonymous": false,
      "inputs": [
        {
          "indexed": true,
          "internalType": "address",
          "name": "account",
          "type": "address"
        },
        {
          "indexed": true,
          "internalType": "address",
          "name": "operator",
          "type": "address"
        },
        {
          "indexed": false,
          "internalType": "bool",
          "name": "approved",
          "type": "bool"
        }
      ],
      "name": "ApprovalForAll",
      "type": "event"
    },
    {
      "anonymous": false,
      "inputs": [
        {
          "indexed": true,
          "internalType": "uint256",
          "name": "projectId",
          "type": "uint256"
        },
        {
          "indexed": false,
          "internalType": "address",
          "name": "buyer",
          "type": "address"
        },
        {
          "indexed": false,
          "internalType": "uint256",
          "name": "amount",
          "type": "uint256"
        },
        {
          "indexed": false,
          "internalType": "uint256",
          "name": "price",
          "type": "uint256"
        }
      ],
      "name": "CreditsPurchased",
      "type": "event"
    },
    {
      "anonymous": false,
      "inputs": [
        {
          "indexed": true,
          "internalType": "address",
          "name": "previousOwner",
          "type": "address"
        },
        {
          "indexed": true,
          "internalType": "address",
          "name": "newOwner",
          "type": "address"
        }
      ],
      "name": "OwnershipTransferred",
      "type": "event"
    },
    {
      "anonymous": false,
      "inputs": [
        {
          "indexed": true,
          "internalType": "uint256",
          "name": "projectId",
          "type": "uint256"
        },
        {
          "indexed": false,
          "internalType": "string",
          "name": "name",
          "type": "string"
        },
        {
          "indexed": false,
          "internalType": "uint256",
          "name": "totalSupply",
          "type": "uint256"
        },
        {
          "indexed": false,
          "internalType": "address",
          "name": "creator",
          "type": "address"
        }
      ],
      "name": "ProjectCreated",
      "type": "event"
    },
    {
      "anonymous": false,
      "inputs": [
        {
          "indexed": true,
          "internalType": "address",
          "name": "operator",
          "type": "address"
        },
        {
          "indexed": true,
          "internalType": "address",
          "name": "from",
          "type": "address"
        },
        {
          "indexed": true,
          "internalType": "address",
          "name": "to",
          "type": "address"
        },
        {
          "indexed": false,
          "internalType": "uint256[]",
          "name": "ids",
          "type": "uint256[]"
        },
        {
          "indexed": false,
          "internalType": "uint256[]",
          "name": "values",
          "type": "uint256[]"
        }
      ],
      "name": "TransferBatch",
      "type": "event"
    },
    {
      "anonymous": false,
      "inputs": [
        {
          "indexed": true,
          "internalType": "address",
          "name": "operator",
          "type": "address"
        },
        {
          "indexed": true,
          "internalType": "address",
          "name": "from",
          "type": "address"
        },
        {
          "indexed": true,
          "internalType": "address",
          "name": "to",
          "type": "address"
        },
        {
          "indexed": false,
          "internalType": "uint256",
          "name": "id",
          "type": "uint256"
        },
        {
          "indexed": false,
          "internalType": "uint256",
          "name": "value",
          "type": "uint256"
        }
      ],
      "name": "TransferSingle",
      "type": "event"
    },
    {
      "anonymous": false,
      "inputs": [
        {
          "indexed": false,
          "internalType": "string",
          "name": "value",
          "type": "string"
        },
        {
          "indexed": true,
          "internalType": "uint256",
          "name": "id",
          "type": "uint256"
        }
      ],
      "name": "URI",
      "type": "event"
    },
    {
      "inputs": [
        {
          "internalType": "address",
          "name": "account",
          "type": "address"
        },
        {
          "internalType": "uint256",
          "name": "id",
          "type": "uint256"
        }
      ],
      "name": "balanceOf",
      "outputs": [
        {
          "internalType": "uint256",
          "name": "",
          "type": "uint256"
        }
      ],
      "stateMutability": "view",
      "type": "function"
    },
    {
      "inputs": [
        {
          "internalType": "address[]",
          "name": "accounts",
          "type": "address[]"
        },
        {
          "internalType": "uint256[]",
          "name": "ids",
          "type": "uint256[]"
        }
      ],
      "name": "balanceOfBatch",
      "outputs": [
        {
          "internalType": "uint256[]",
          "name": "",
          "type": "uint256[]"
        }
      ],
      "stateMutability": "view",
      "type": "function"
    },
    {
      "inputs": [
        {
          "internalType": "string",
          "name": "name",
          "type": "string"
        },
        {
          "internalType": "string",
          "name": "description",
          "type": "string"
        },
        {
          "internalType": "uint256",
          "name": "supply",
          "type": "uint256"
        },
        {
          "internalType": "uint256",
          "name": "pricePerCredit",
          "type": "uint256"
        },
        {
          "internalType": "string",
          "name": "verificationHash",
          "type": "string"
        }
      ],
      "name": "createProject",
      "outputs": [
        {
          "internalType": "uint256",
          "name": "",
          "type": "uint256"
        }
      ],
      "stateMutability": "nonpayable",
      "type": "function"
    },
    {
      "inputs": [
        {
          "internalType": "uint256",
          "name": "projectId",
          "type": "uint256"
        }
      ],
      "name": "getProject",
      "outputs": [
        {
          "components": [
            {
              "internalType": "string",
              "name": "name",
              "type": "string"
            },
            {
              "internalType": "string",
              "name": "description",
              "type": "string"
            },
            {
              "internalType": "uint256",
              "name": "totalSupply",
              "type": "uint256"
            },
            {
              "internalType": "uint256",
              "name": "available",
              "type": "uint256"
            },
            {
              "internalType": "string",
              "name": "verificationHash",
              "type": "string"
            },
            {
              "internalType": "address",
              "name": "creator",
              "type": "address"
            },
            {
              "internalType": "uint256",
              "name": "price",
              "type": "uint256"
            },
            {
              "internalType": "bool",
              "name": "isActive",
              "type": "bool"
            }
          ],
          "internalType": "struct CarbonCreditToken.Project",
          "name": "",
          "type": "tuple"
        }
      ],
      "stateMutability": "view",
      "type": "function"
    },
    {
      "inputs": [
        {
          "internalType": "address",
          "name": "account",
          "type": "address"
        },
        {
          "internalType": "address",
          "name": "operator",
          "type": "address"
        }
      ],
      "name": "isApprovedForAll",
      "outputs": [
        {
          "internalType": "bool",
          "name": "",
          "type": "bool"
        }
      ],
      "stateMutability": "view",
      "type": "function"
    },
    {
      "inputs": [],
      "name": "nextProjectId",
      "outputs": [
        {
          "internalType": "uint256",
          "name": "",
          "type": "uint256"
        }
      ],
      "stateMutability": "view",
      "type": "function"
    },
    {
      "inputs": [],
      "name": "owner",
      "outputs": [
        {
          "internalType": "address",
          "name": "",
          "type": "address"
        }
      ],
      "stateMutability": "view",
      "type": "function"
    },
    {
      "inputs": [
        {
          "internalType": "uint256",
          "name": "",
          "type": "uint256"
        }
      ],
      "name": "projects",
      "outputs": [
        {
          "internalType": "string",
          "name": "name",
          "type": "string"
        },
        {
          "internalType": "string",
          "name": "description",
          "type": "string"
        },
        {
          "internalType": "uint256",
          "name": "totalSupply",
          "type": "uint256"
        },
        {
          "internalType": "uint256",
          "name": "available",
          "type": "uint256"
        },
        {
          "internalType": "string",
          "name": "verificationHash",
          "type": "string"
        },
        {
          "internalType": "address",
          "name": "creator",
          "type": "address"
        },
        {
          "internalType": "uint256",
          "name": "price",
          "type": "uint256"
        },
        {
          "internalType": "bool",
          "name": "isActive",
          "type": "bool"
        }
      ],
      "stateMutability": "view",
      "type": "function"
    },
    {
      "inputs": [
        {
          "internalType": "uint256",
          "name": "projectId",
          "type": "uint256"
        },
        {
          "internalType": "uint256",
          "name": "amount",
          "type": "uint256"
        }
      ],
      "name": "purchaseCredits",
      "outputs": [],
      "stateMutability": "payable",
      "type": "function"
    },
    {
      "inputs": [],
      "name": "renounceOwnership",
      "outputs": [],
      "stateMutability": "nonpayable",
      "type": "function"
    },
    {
      "inputs": [
        {
          "internalType": "address",
          "name": "from",
          "type": "address"
        },
        {
          "internalType": "address",
          "name": "to",
          "type": "address"
        },
        {
          "internalType": "uint256[]",
          "name": "ids",
          "type": "uint256[]"
        },
        {
          "internalType": "uint256[]",
          "name": "values",
          "type": "uint256[]"
        },
        {
          "internalType": "bytes",
          "name": "data",
          "type": "bytes"
        }
      ],
      "name": "safeBatchTransferFrom",
      "outputs": [],
      "stateMutability": "nonpayable",
      "type": "function"
    },
    {
      "inputs": [
        {
          "internalType": "address",
          "name": "from",
          "type": "address"
        },
        {
          "internalType": "address",
          "name": "to",
          "type": "address"
        },
        {
          "internalType": "uint256",
          "name": "id",
          "type": "uint256"
        },
        {
          "internalType": "uint256",
          "name": "value",
          "type": "uint256"
        },
        {
          "internalType": "bytes",
          "name": "data",
          "type": "bytes"
        }
      ],
      "name": "safeTransferFrom",
      "outputs": [],
      "stateMutability": "nonpayable",
      "type": "function"
    },
    {
      "inputs": [
        {
          "internalType": "address",
          "name": "operator",
          "type": "address"
        },
        {
          "internalType": "bool",
          "name": "approved",
          "type": "bool"
        }
      ],
      "name": "setApprovalForAll",
      "outputs": [],
      "stateMutability": "nonpayable",
      "type": "function"
    },
    {
      "inputs": [
        {
          "internalType": "bytes4",
          "name": "interfaceId",
          "type": "bytes4"
        }
      ],
      "name": "supportsInterface",
      "outputs": [
        {
          "internalType": "bool",
          "name": "",
          "type": "bool"
        }
      ],
      "stateMutability": "view",
      "type": "function"
    },
    {
      "inputs": [
        {
          "internalType": "address",
          "name": "newOwner",
          "type": "address"
        }
      ],
      "name": "transferOwnership",
      "outputs": [],
      "stateMutability": "nonpayable",
      "type": "function"
    },
    {
      "inputs": [
        {
          "internalType": "uint256",
          "name": "projectId",
          "type": "uint256"
        }
      ],
      "name": "uri",
      "outputs": [
        {
          "internalType": "string",
          "name": "",
          "type": "string"
        }
      ],
      "stateMutability": "view",
      "type": "function"
    }
  ],
  "bytecode": "0x6080346200014f57602081016001600160401b03811182821017620001395760405260008091526002546001908181811c911680156200012e575b60208210146200011a57601f8111620000cc575b50816002553315620000b35760038054336001600160a01b031982168117909255604051936001600160a01b03909116907f8be0079c531659141344cd1fd0a4f28419497f9722a3daafe3b4186f6b6457e09080a3600555611c539081620001558239f35b604051631e4fbdf760e01b815260048101839052602490fd5b60028352601f0160051c7f405787fa12a823e0f2b7631cc41b3ba8828b3321ca811111fa75cd3aa3bb5ace9081019082905b8281106200010e5750506200004e565b848155018290620000fe565b634e487b7160e01b83526022600452602483fd5b90607f16906200003a565b634e487b7160e01b600052604160045260246000fd5b600080fdfe6080604052600436101561001257600080fd5b60003560e01c8062fdd58e1461011657806301ffc9a7146101115780630e89341c1461010c578063107046bd146101075780632eb2c2d6146101025780634e1273f4146100fd578063715018a6146100f857806384034469146100f35780638da5cb5b146100ee578063a22cb465146100e9578063dd3f95bc146100e4578063e935b7b1146100df578063e985e9c5146100da578063f0f3f2c8146100d5578063f242432a146100d05763f2fde38b146100cb57600080fd5b610f14565b610e5a565b610d70565b610c81565b610c63565b610bda565b610b1e565b610af5565b6109d5565b610974565b6108ba565b61074c565b6105ed565b610289565b6101bf565b610160565b600435906001600160a01b038216820361013157565b600080fd5b602435906001600160a01b038216820361013157565b35906001600160a01b038216820361013157565b346101315760403660031901126101315760206101a461017e61011b565b6024356000526000835260406000209060018060a01b0316600052602052604060002090565b54604051908152f35b6001600160e01b031981160361013157565b346101315760203660031901126101315760206004356101de816101ad565b63ffffffff60e01b16636cdb3d1360e11b811490811561021c575b811561020b575b506040519015158152f35b6301ffc9a760e01b14905038610200565b6303a24d0760e21b811491506101f9565b60005b8381106102405750506000910152565b8181015183820152602001610230565b906020916102698151809281855285808601910161022d565b601f01601f1916010190565b906020610286928181520190610250565b90565b34610131576020366003190112610131576000600435807a184f03e93ff9f4daa797ed6e38ed64bf6a1f01000000000000000080821015610441575b506d04ee2d6d415b85acef810000000080831015610432575b50662386f26fc1000080831015610423575b506305f5e10080831015610414575b5061271080831015610405575b5060648210156103f5575b600a809210156103eb575b600190816021610333828701611beb565b95860101905b6103b5575b6103b16103976103a587604051928391610391602084016029907f68747470733a2f2f677265656e746f6b656e6875622e70616765732e6465762f8152686d657461646174612f60b81b60208201520190565b90611bd4565b03601f1981018352826104c1565b60405191829182610275565b0390f35b600019019083906f181899199a1a9b1b9c1cb0b131b232b360811b8282061a8353049182156103e657919082610339565b61033e565b9160010191610322565b9190606460029104910191610317565b6004919392049101913861030c565b600891939204910191386102ff565b601091939204910191386102f0565b602091939204910191386102de565b6040935081049150386102c5565b90600182811c9216801561047f575b602083101461046957565b634e487b7160e01b600052602260045260246000fd5b91607f169161045e565b634e487b7160e01b600052604160045260246000fd5b610100810190811067ffffffffffffffff8211176104bc57604052565b610489565b90601f8019910116810190811067ffffffffffffffff8211176104bc57604052565b90604051918260008254926104f78461044f565b9081845260019485811690816000146105665750600114610523575b5050610521925003836104c1565b565b9093915060005260209081600020936000915b81831061054e57505061052193508201013880610513565b85548884018501529485019487945091830191610536565b91505061052194506020925060ff191682840152151560051b8201013880610513565b96936105b96105d194936105ab60e0999c9b9894610100808d528c0190610250565b908a820360208c0152610250565b92604089015260608801528682036080880152610250565b6001600160a01b0390961660a085015260c08401521515910152565b346101315760203660031901126101315760043560005260046020526040600020610617816104e3565b6103b1610626600184016104e3565b92600281015490600381015461063e600483016104e3565b60018060a01b036005840154169160ff60076006860154950154169460405198899889610589565b604051906105218261049f565b67ffffffffffffffff81116104bc5760051b60200190565b81601f82011215610131578035916106a283610673565b926106b060405194856104c1565b808452602092838086019260051b820101928311610131578301905b8282106106da575050505090565b813581529083019083016106cc565b67ffffffffffffffff81116104bc57601f01601f191660200190565b81601f820112156101315780359061071c826106e9565b9261072a60405194856104c1565b8284526020838301011161013157816000926020809301838601378301015290565b346101315760a03660031901126101315761076561011b565b61076d610136565b906044359167ffffffffffffffff90818411610131576107926004943690860161068b565b90606435838111610131576107aa903690870161068b565b92608435908111610131576107c29036908701610705565b936001600160a01b03808216903382141580610851575b6108245783161561080c57156107f5576107f39550611167565b005b604051626a0d4560e21b8152600081880152602490fd5b604051632bfa23e760e11b8152600081890152602490fd5b6040805163711bec9160e11b815233818b019081526001600160a01b038616602082015290918291010390fd5b50600082815260016020908152604080832033845290915290205460ff16156107d9565b90815180825260208080930193019160005b828110610895575050505090565b835185529381019392810192600101610887565b906020610286928181520190610875565b346101315760403660031901126101315760043567ffffffffffffffff80821161013157366023830112156101315781600401356108f781610673565b9261090560405194856104c1565b81845260209160248386019160051b8301019136831161013157602401905b82821061095d5785602435868111610131576103b19161094b61095192369060040161068b565b90611022565b604051918291826108a9565b8380916109698461014c565b815201910190610924565b34610131576000806003193601126109d25761098e610fa2565b600380546001600160a01b0319811690915581906001600160a01b03167f8be0079c531659141344cd1fd0a4f28419497f9722a3daafe3b4186f6b6457e08280a380f35b80fd5b6040366003190112610131576000808080610ad3610ac7610ac7600435602435907f9791971add465e345b4bdca900c99b8e4b219a257cf3cb84dc1fda2945d76b8e610a2b826000526004602052604060002090565b92610a42610a3d600786015460ff1690565b611ae1565b60056003850194855495610a5884881015611b25565b610a7c846006840198610a77610a6f8b5484611b71565b341015611b84565b611bc7565b9055018054909490610aa3906001600160a01b03168386610a9b61143c565b9233906110e7565b54604080513381526020810193909352820152606090a2546001600160a01b031690565b6001600160a01b031690565b81903415610aeb575b3491f115610ae657005b611430565b6108fc9150610adc565b34610131576000366003190112610131576003546040516001600160a01b039091168152602090f35b3461013157604036600319011261013157610b3761011b565b6024359081151590818303610131576001600160a01b038116928315610bc257610b83610b949233600052600160205260406000209060018060a01b0316600052602052604060002090565b9060ff801983541691151516179055565b6040519081527f17307eab39ab6107e8899845ad3d59bd9653f200f220920489ca2b5937696c3160203392a3005b60405162ced3e160e81b815260006004820152602490fd5b346101315760a03660031901126101315767ffffffffffffffff60043581811161013157610c0c903690600401610705565b9060243581811161013157610c25903690600401610705565b91608435918211610131576103b192610c45610c53933690600401610705565b91606435916044359161185d565b6040519081529081906020820190565b34610131576000366003190112610131576020600554604051908152f35b3461013157604036600319011261013157602060ff610cd2610ca161011b565b610ca9610136565b6001600160a01b0391821660009081526001865260408082209290931681526020919091522090565b54166040519015158152f35b6102869060208152825160e0610d4a610d0561010093846020870152610120860190610250565b610d21602088015191601f199283888303016040890152610250565b9060408801516060870152606088015160808701526080880151908683030160a0870152610250565b60a08601516001600160a01b031660c08501529460c08101518483015201511515910152565b34610131576020366003190112610131576103b1604060e08151610d938161049f565b606081526060602082015260009181838581940152826060820152606060808201528260a08201528260c082015201526004358152600460205220610e4e610e456007610dde610666565b93610de8816104e3565b8552610df6600182016104e3565b60208601526002810154604086015260038101546060860152610e1b600482016104e3565b608086015260058101546001600160a01b031660a0860152600681015460c0860152015460ff1690565b151560e0830152565b60405191829182610cde565b346101315760a036600319011261013157610e7361011b565b610e7b610136565b60843567ffffffffffffffff811161013157610e9b903690600401610705565b906001600160a01b038316338114159081610eee575b50610ec7576107f39260643591604435916110e7565b60405163711bec9160e11b81523360048201526001600160a01b0384166024820152604490fd5b6000908152600160209081526040808320338452909152902060ff915054161538610eb1565b3461013157602036600319011261013157610f2d61011b565b610f35610fa2565b6001600160a01b03908116908115610f8957600354826bffffffffffffffffffffffff60a01b821617600355167f8be0079c531659141344cd1fd0a4f28419497f9722a3daafe3b4186f6b6457e0600080a3005b604051631e4fbdf760e01b815260006004820152602490fd5b6003546001600160a01b03163303610fb657565b60405163118cdaa760e01b8152336004820152602490fd5b634e487b7160e01b600052601160045260246000fd5b6000198114610ff35760010190565b610fce565b805182101561100c5760209160051b010190565b634e487b7160e01b600052603260045260246000fd5b919091805183518082036110c557505080519061103e82610673565b9161104c60405193846104c1565b80835261105b601f1991610673565b0190602091368385013760005b81518110156110bd57600581901b8281018401519087018401516000908152602081815260408083206001600160a01b03909416835292905220546110b891906110b28287610ff8565b52610fe4565b611068565b509193505050565b604051635b05999160e01b815260048101919091526024810191909152604490fd5b92939290916001600160a01b038084161561114e57821615611136576105219461112e60405192600184526020840152604083019160018352606084015260808301604052565b929091611167565b604051626a0d4560e21b815260006004820152602490fd5b604051632bfa23e760e11b815260006004820152602490fd5b9491909181518451908181036110c557505060005b825181101561128f57600581901b83810160209081015191870101516001600160a01b03929186908a8516611208575b6111bf9482166111c4575b505050610fe4565b61117c565b6111fe916111df6111f6926000526000602052604060002090565b9060018060a01b0316600052602052604060002090565b918254611385565b90553885816111b7565b91929390506112258a6111df846000526000602052604060002090565b5483811061125857918791846111bf969594036112508d6111df856000526000602052604060002090565b5594506111ac565b6040516303dee4c560e01b81526001600160a01b038c16600482015260248101919091526044810184905260648101839052608490fd5b50949193929093600185511460001461133a576020858101518382015160408051928352928201526001600160a01b03838116929086169133917fc3d58168c5ae7397731d063d5bbf3d657854427343f4c083240f7aacaa2d0f6291a45b6001600160a01b038116611303575b5050505050565b84516001036113295760208061131f960151920151923361158a565b38808080806112fc565b611335949192336116d6565b61131f565b6040516001600160a01b03828116919085169033907f4a39dc06d4c0dbc64b70af90fd698a233a518aa5d07e595d983b8c0526c8f7fb908061137d888c83611392565b0390a46112ed565b91908201809211610ff357565b90916113a961028693604084526040840190610875565b916020818403910152610875565b908160209103126101315751610286816101ad565b909260a0926102869594600180861b0316835260006020840152604083015260608201528160808201520190610250565b919261028695949160a094600180871b038092168552166020840152604083015260608201528160808201520190610250565b6040513d6000823e3d90fd5b604051906020820182811067ffffffffffffffff8211176104bc5760405260008252565b3d1561148b573d90611471826106e9565b9161147f60405193846104c1565b82523d6000602084013e565b606090565b9293919093843b6114a2575050505050565b6020916114c5604051948593849363f23a6e6160e01b98898652600486016113cc565b038160006001600160a01b0388165af16000918161155a575b5061151d57826114ec611460565b805191908261151657604051632bfa23e760e11b81526001600160a01b0383166004820152602490fd5b9050602001fd5b6001600160e01b03191603611537575038808080806112fc565b604051632bfa23e760e11b81526001600160a01b03919091166004820152602490fd5b61157c91925060203d8111611583575b61157481836104c1565b8101906113b7565b90386114de565b503d61156a565b939290949194853b61159f575b505050505050565b6115c2602093604051958694859463f23a6e6160e01b998a8752600487016113fd565b038160006001600160a01b0388165af160009181611604575b506115e957826114ec611460565b6001600160e01b031916036115375750388080808080611597565b61161d91925060203d81116115835761157481836104c1565b90386115db565b9261165361028695936116619360018060a01b031686526000602087015260a0604087015260a0860190610875565b908482036060860152610875565b916080818403910152610250565b93906102869593611653916116619460018060a01b03809216885216602087015260a0604087015260a0860190610875565b9293919093843b6116b3575050505050565b6020916114c5604051948593849363bc197c8160e01b9889865260048601611624565b939290949194853b6116ea57505050505050565b6115c2602093604051958694859463bc197c8160e01b998a87526004870161166f565b90601f811161171b57505050565b600091825260208220906020601f850160051c83019410611757575b601f0160051c01915b82811061174c57505050565b818155600101611740565b9092508290611737565b919091825167ffffffffffffffff81116104bc5761178981611783845461044f565b8461170d565b602080601f83116001146117c55750819293946000926117ba575b50508160011b916000199060031b1c1916179055565b0151905038806117a4565b90601f198316956117db85600052602060002090565b926000905b888210611818575050836001959697106117ff575b505050811b019055565b015160001960f88460031b161c191690553880806117f5565b806001859682949686015181550195019301906117e0565b919392611847604092606085526060850190610250565b60208401959095526001600160a01b0316910152565b91909360055494859461186f86610fe4565b6005556040519261187f8461049f565b858452602084019283526040840190858252606085018681526080860191825260a086019233845260c0870194855260e0870195600187526118cb8b6000526004602052604060002090565b97516118d79089611761565b516118e59060018901611761565b516002870155516003860155516118ff9060048601611761565b516001600160a01b03166005840180546001600160a01b0319166001600160a01b03909216919091179055516006830155511515906007019061194d919060ff801983541691151516179055565b8261195661143c565b8233926119629361199b565b60405191829133906119749284611830565b037fbb4637bbc1f7f92783410fb90807fcced52c1562da987ac649876f09a750a5e391a290565b6001600160a01b0381169392909190841561114e576119d760405192600184526020840152604083019160018352606084015260808301604052565b9281518451908181036110c557505060005b8251811015611a2e5780611a299160051b611a226111f6876111df602080868b010151958c010151946000526000602052604060002090565b9055610fe4565b6119e9565b509291936001825114600014611aa55760208281015184820151604080519283529282015260009133917fc3d58168c5ae7397731d063d5bbf3d657854427343f4c083240f7aacaa2d0f629190a45b8051600103611a9b5790602080610521959301519101519133611490565b61052193336116a1565b60006040517f4a39dc06d4c0dbc64b70af90fd698a233a518aa5d07e595d983b8c0526c8f7fb339180611ad9888883611392565b0390a4611a7d565b15611ae857565b60405162461bcd60e51b815260206004820152601560248201527450726f6a656374206973206e6f742061637469766560581b6044820152606490fd5b15611b2c57565b60405162461bcd60e51b815260206004820152601c60248201527f4e6f7420656e6f756768206372656469747320617661696c61626c65000000006044820152606490fd5b81810292918115918404141715610ff357565b15611b8b57565b60405162461bcd60e51b8152602060048201526014602482015273125b9cdd59999a58da595b9d081c185e5b595b9d60621b6044820152606490fd5b91908203918211610ff357565b90611be76020928281519485920161022d565b0190565b90611bf5826106e9565b611c0260405191826104c1565b8281528092611c13601f19916106e9565b019060203691013756fea2646970667358221220dd0ec933ba19456e065f5c65c9d9b4528be13bff860c5fb306f5a3d6171819bd64736f6c63430008140033",
  "linkReferences": {},
  "deployedLinkReferences": {}
}